:1000000045C0000058C0000056C0000054C00000A9
:1000100052C0000050C000004EC000004CC00000A4
:100020004AC0000048C0000046C0000044C00000B4
:1000300042C0000040C000003EC000003CC00000C4
:100040003AC0000038C0000036C0000034C00000D4
:1000500032C0000030C000002EC000002CC00000E4
:100060002AC0000028C0000026C0000024C00000F4
:1000700022C0000020C000001EC000001CC0000004
:100080001AC0000018C0000016C0000011241FBED6
:10009000CFEFD0E1DEBFCDBF11E0A0E0B1E0EAE0FC
:1000A000F3E000E00BBF02C007900D92A630B1074D
:1000B000D9F702D028C1A4CF60E08CE090E056D000
:1000C000412C512C3201992777FC9A95872D762D5A
:1000D000652D82E090E00AD1B201772783E090E0BD
:1000E00005D182E090E0FAD0882E83E090E0F6D04F
:1000F0009FEF491A590A690A790A9AE04916510488
:100100006104710401F7482C512C542C4424480EEE
:10011000511C662457FC6094762C912CA12CB12C98
:10012000C82ED12CE12CF12C60E080E091E04AD087
:1001300040E0C501B40158D060E08DE035D060E00A
:1001400082E091E03FD040E0C701B6014DD060E0D1
:100150008DE02AD060E084E091E034D040E0C3013B
:10016000B20142D060E08DE01FD0DECF78946623EC
:1001700079F09093980080939900EAE9F0E080810B
:1001800088618083EDE9F0E0808186608083089556
:100190009093900089B98AB188618AB9E5E9F0E065
:1001A0008081866080830895662341F0EBE9F0E06A
:1001B000908195FFFDCF80939C0008955D9BFECFBD
:1001C0008CB908951F93CF93DF93EC01162F88818C
:1001D000882331F02196612FE7DF89918111FBCFD0
:1001E000DF91CF911F910895BF92CF92DF92EF924E
:1001F000FF920F931F93CF93DF936B017C01C42F6A
:1002000099235CF4642F8DE2CFDFF094E094D094D6
:10021000C094C11CD11CE11CF11C8AE0C816D10499
:10022000E104F1047CF0C701B6012AE030E040E0CF
:1002300050E016D069017A01B62E4C2FC701B601E5
:10024000D3DFCB2C6C2F80E38C0DAEDFDF91CF9111
:100250001F910F91FF90EF90DF90CF90BF90089586
:10026000052E97FB16F400940FD057FD05D014D03F
:1002700007FC02D046F408C0509540953095219572
:100280003F4F4F4F5F4F08959095809570956195C2
:100290007F4F8F4F9F4F0895A1E21A2EAA1BBB1BC1
:1002A000FD010DC0AA1FBB1FEE1FFF1FA217B30742
:1002B000E407F50720F0A21BB30BE40BF50B661F58
:1002C000771F881F991F1A9469F76095709580951C
:1002D00090959B01AC01BD01CF010895E199FECF3E
:1002E0009FBB8EBBE09A99278DB30895262FE19985
:1002F000FECF9FBB8EBB2DBB0FB6F894E29AE19A5E
:0A0300000FBE01960895F894FFCF98
:06030A00610062006300C7
:00000001FF
